:1000000012C06BCCB9CC2AC01DCD28C027C026C0D9
:1000100025C024C023C022C021C020C08BCD1EC05B
:10002000F7CD1CC01BC011241FBECFE5D4E0DEBF3E
:10003000CDBF11E0A0E6B0E0E8E6FEE102C0059029
:100040000D92A639B107D9F711E0A6E9B1E001C0D8
:100050001D92AC3EB107E1F742DA04CFD1CFE1996E
:10006000FECF8091E8019091E901A091EA01B09161
:10007000EB018DBB80E293E09FBB8EBBE29AE19ADD
:10008000E199FECF8091E8019091E901A091EA0108
:10009000B091EB01892F8DBB81E293E09FBB8EBBBA
:1000A000E29AE19AE199FECF8091E8019091E9010D
:1000B000A091EA01B091EB018A2F8DBB82E293E01F
:1000C0009FBB8EBBE29AE19AE199FECF80919F019E
:1000D0009091A001A091A101B091A2018DBB85E2F8
:1000E00093E09FBB8EBBE29AE19AE199FECF8091AB
:1000F0009F019091A001A091A101B091A201892F2F
:100100008DBB86E293E09FBB8EBBE29AE19AE199B8
:10011000FECF80919F019091A001A091A101B0918B
:10012000A2018A2F8DBB87E293E09FBB8EBBE29A30
:10013000E19AE199FECF0895DF93CF9300D0CDB738
:10014000DEB71A8219821A82198229813A81809136
:10015000A3019091A4012817390770F489819A812D
:1001600001969A83898329813A818091A301909194
:10017000A4012817390790F30F900F90CF91DF91CA
:10018000089589989198D8DF0895D6DF899AD4DFA9
:10019000889AD2DF0895DF93CF9300D0CDB7DEB732
:1001A0008A8388E0898389818823D1F02A818981A3
:1001B00030E090E00197A90102C0559547958A95D6
:1001C000E2F740FD8998B8DF8898B6DF889AB4DFF7
:1001D000899AB2DF8981815089838981882331F7A7
:1001E0008998AADF8898A8DF889AA6DF899AA4DF71
:1001F0000F900F90CF91DF910895DF93CF930F92DF
:10020000CDB7DEB789838981807F8560C4DF89812E
:10021000807F8160C0DF89818295807F8560BBDFC0
:1002200089818295807F8160B6DF0F90CF91DF91C9
:100230000895DF93CF930F92CDB7DEB7898389817D
:10024000807F8460A8DF8981807FA5DF8981829596
:10025000807F8460A0DF89818295807F9CDF0F9002
:10026000CF91DF9108950F931F93DF93CF9300D029
:1002700000D00F92CDB7DEB719821A821B821C8282
:10028000899889E08D838D81823040F101E010E012
:1002900053DF889851DF819B1AC08D8129813A8173
:1002A0004B815C8190E00297B80102C0660F771F16
:1002B0008A95E2F7CB01AA2797FDA095BA2F820F66
:1002C000931FA41FB51F89839A83AB83BC83889A2D
:1002D0008D8181508D838D818230D0F62DDF2981F3
:1002E0003A814B815C81622F732F842F952F0F9061
:1002F0000F900F900F900F90CF91DF911F910F9162
:1003000008951ADF899A18DF889816DF889A14DF13
:10031000899A12DF089510DF89980EDF88980CDF24
:10032000889A0ADF899A08DF089506DF889804DF33
:10033000899802DF08950F931F93DF93CF9300D026
:100340000F92CDB7DEB71A821982899889E08B8324
:100350008B818230F0F001E010E0EEDE8898ECDE78
:10036000819B10C08B8129813A8190E00297A8017E
:1003700002C0440F551F8A95E2F7CA01820F931FEE
:100380009A838983889A8B8181508B838B81823079
:1003900020F7B7DF899880E18B838B818930F0F07B
:1003A00001E010E0C9DE8898C7DE819B10C08B8118
:1003B00029813A8190E00197A80102C0440F551F9E
:1003C0008A95E2F7CA01820F931F9A838983889ADC
:1003D0008B8181508B838B81893020F789819A8131
:1003E00099233CF429813A8140E050E04F6F5F6FE0
:1003F00004C029813A8140E050E0622F732F842F9E
:10040000952F0F900F900F90CF91DF911F910F912B
:100410000895BBDE8CEEBFDE88E8BDDE86DFB5DE8C
:100420008DEEB9DE20DF60939B0170939C01809379
:100430009D0190939E0165DF16DF9B01AC018091C9
:100440009B0190919C01A0919D01B0919E01542F20
:10045000432F322F2227BC01CD01622B732B842B1B
:10046000952B60939B0170939C0180939D019093C9
:100470009E0147DF60DF6093A5017093A601809322
:10048000A7019093A8013DDF56DF6093E0017093D0
:10049000E1018093E2019093E30133DFE4DE6093B6
:1004A000C9017093CA018093CB019093CC0129DFDD
:1004B000DADE9B01AC018091C9019091CA01A09143
:1004C000CB01B091CC01542F432F322F2227BC01F6
:1004D000CD01622B732B842B952B6093C9017093F4
:1004E000CA018093CB019093CC010BDF24DF609392
:1004F000B2017093B3018093B4019093B50101DF11
:100500001ADF6093CD017093CE018093CF01909359
:10051000D001F7DE10DF6093B6017093B7018093CE
:10052000B8019093B901EDDE06DF6093C2017093CC
:10053000C3018093C4019093C501E3DEFCDE6093A8
:10054000E4017093E5018093E6019093E701D9DE21
:10055000F2DE6093970170939801809399019093D4
:100560009A01CFDEE8DE6093D1017093D2018093CF
:10057000D3019093D401C5DEDEDE6093DC0170937D
:10058000DD018093DE019093DF01C5DECEDE0895AC
:100590002F923F924F925F926F927F928F929F9293
:1005A000AF92BF92CF92DF92EF92FF920F931F9381
:1005B000DF93CF93CDB7DEB764970FB6F894DEBF65
:1005C0000FBECDBFE2DD8CEEE6DD87EFE4DDADDE14
:1005D000DCDD8DEEE0DD47DE052E5CE0660F771F8B
:1005E000881F991F5A95D1F7502D6093BE017093C3
:1005F000BF018093C0019093C10183DE34DE9B0173
:10060000AC018091BE019091BF01A091C001B09159
:10061000C101220F331F441F551F220F331F441FD8
:10062000551F220F331F441F551F220F331F441F16
:10063000551FBC01CD01620F731F841F951F60936E
:10064000BE017093BF018093C0019093C10159DE38
:100650000ADE9B01AC018091BE019091BF01A09187
:10066000C001B091C101BC01CD01620F731F841F95
:10067000951F6093BE017093BF018093C00190935A
:10068000C1013FDEF0DD052E5CE0660F771F881F9D
:10069000991F5A95D1F7502D6093BA017093BB0101
:1006A0008093BC019093BD012CDEDDDD9B01AC018C
:1006B0008091BA019091BB01A091BC01B091BD01A4
:1006C000220F331F441F551F220F331F441F551F76
:1006D000220F331F441F551F220F331F441F551F66
:1006E000BC01CD01620F731F841F951F6093BA0177
:1006F0007093BB018093BC019093BD0102DEB3DD1A
:100700009B01AC018091BA019091BB01A091BC0109
:10071000B091BD01BC01CD01620F731F841F951FF5
:100720006093BA017093BB018093BC019093BD01AB
:10073000F2DDFBDD19821A821B821C821D821E8261
:100740001F82188619861A861B861C861D861E86A1
:100750001F86188A198A1A8A1B8A1C8AE090BA0195
:10076000F090BB010091BC011091BD0180919B01F3
:1007700090919C01A0919D01B0919E012091A501B5
:100780003091A6014091A7015091A801689412F8F8
:1007900015950795F794E7941694D1F7880F991F4C
:1007A000AA1FBB1F17012801281A390A4A0A5B0A27
:1007B000C201B101FBDA052E5BE09595879577952F
:1007C00067955A95D1F7502D69837A838B839C83E3
:1007D0002091BA013091BB014091BC015091BD0103
:1007E000A0909B01B0909C01C0909D01D0909E0173
:1007F000E090BA01F090BB010091BC011091BD01E5
:1008000080919B0190919C01A0919D01B0919E01CE
:100810006090E0017090E1018090E2019090E3012E
:10082000689413F815950795F794E7941694D1F703
:1008300017012801281A390A4A0A5B0AC201B101C4
:10084000689413F855954795379527951694D1F7E1
:100850002A193B094C095D09A9DA052E5CE095953A
:100860008795779567955A95D1F7502DA4019301F7
:100870009DDA052E5EE095958795779567955A9553
:10088000D1F7502D6D837E838F8398878D819E81D4
:10089000AF81B88529813A814B815C81820F931F9A
:1008A000A41FB51F89879A87AB87BC8789859A85DE
:1008B000AB85BC859C01AD01220F331F441F551F22
:1008C000220F331F441F551F820F931FA41FB51FF4
:1008D00080589F4FAF4FBF4F892F9A2FAB2FBB2709
:1008E000A7FDBA958D879E87AF87B88B19821A822C
:1008F0001B821C821D821E821F82188689859A8512
:10090000AB85BC85B595A7959795879580509A4FEF
:10091000A040B04089839A83AB83BC8329813A810C
:100920004B815C8169817A818B819C81E090E401BB
:10093000F090E5010091E6011091E70137DAA80196
:10094000970134DA20E030E840E050E070DA2D839F
:100950003E834F83588769817A818B819C81209166
:10096000C2013091C3014091C4015091C501ED8095
:10097000FE800F8118851ADA660F771F881F991F6E
:10098000E60EF71E081F191FED82FE820F831887DF
:100990008D819E81AF81B8852091B6013091B701DC
:1009A0004091B8015091B901A90133272227B5958B
:1009B000A79597958795B595A79597958795820F54
:1009C000931FA41FB51F8D839E83AF83B887298192
:1009D0003A814B815C8169817A818B819C81E09035
:1009E000CD01F090CE010091CF011091D001609027
:1009F000B2017090B3018090B4019090B501A980CC
:100A0000BA80CB80DC80959587957795679595958D
:100A1000879577956795559547953795279555957A
:100A2000479537952795C2D9052E5DE09595879511
:100A3000779567955A95D1F7502DA8019701B6D9AA
:100A40007B018C01689412F815950795F794E7944B
:100A50001694D1F7C601B501A4019301A7D99595C4
:100A6000879577956795E60EF71E081F191F0D2EBF
:100A7000D2E115950795F794E794DA95D1F7D02D43
:100A8000E982FA820B831C8369817A818B819C8144
:100A90002091C9013091CA014091CB015091CC0104
:100AA000605070488F4F9F4F81D9052E5FE095951C
:100AB0008795779567955A95D1F7502D69837A83F5
:100AC0008B839C8389819A81AB81BC810097A1052E
:100AD000B10541F41092D7011092D8011092D901BA
:100AE0001092DA014091BE015091BF016091C001A6
:100AF0007091C1018D819E81AF81B88500E010E0C9
:100B000020E130E058016901A41AB50AC60AD70AE3
:100B1000072E7CE0B595A795979587957A95D1F79F
:100B2000702D76016501C81AD90AEA0AFB0AC701C5
:100B3000B60125E33CE040E050E038D9698B7A8B80
:100B40008B8B9C8B89899A89AB89BC89BB2394F058
:100B500069897A898B899C8929813A814B815C8159
:100B6000660F771F881F991F40D9298B3A8B4B8BB3
:100B70005C8B11C069897A898B899C8929813A812A
:100B80004B815C8132D9220F331F441F551F298BA3
:100B90003A8B4B8B5C8B29893A894B895C896989B3
:100BA0007A898B899C89E090DC01F090DD010091CD
:100BB000DE011091DF01689412F89695879577957C
:100BC00067951694D1F7689412F85695479537951E
:100BD00027951694D1F7EAD8052E5DE0969587956E
:100BE000779567955A95D1F7502DA8019701DED8D2
:100BF000052E5CE096958795779567955A95D1F780
:100C0000502D69837A838B839C8329893A894B8908
:100C10005C896091D1017091D2018091D301909152
:100C2000D401012E1FE056954795379527951A95C3
:100C3000D1F7102DBBD86D837E838F839887298150
:100C40003A814B815C81ED80FE800F811885809117
:100C5000970190919801A0919901B0919A01A9886A
:100C6000BA88CB88DC882E0D3F1D401F511F820F94
:100C7000931FA41FB51F689413F8B595A795979572
:100C800087951694D1F7A80EB91ECA1EDB1EA09236
:100C9000D701B092D801C092D901D092DA016496FE
:100CA0000FB6F894DEBF0FBECDBFCF91DF911F917D
:100CB0000F91FF90EF90DF90CF90BF90AF909F90FB
:100CC0008F907F906F905F904F903F902F900895FE
:100CD0005CDA8CEE60DA80EE5EDA86EB5CDA25DBDD
:100CE00081E090E0A0E0B0E08093D7019093D8013C
:100CF000A093D901B093DA018091D7019091D801E6
:100D0000A091D901B091DA0181709070009721F122
:100D10003CDA8CEE40DA83EF3EDA07DB36DA8DEE32
:100D20003ADAA1DA262F372F482F592F2093D701EF
:100D30003093D8014093D9015093DA01ECDAF5DA17
:100D40008091D7019091D801A091D901B091DA0199
:100D5000817090700097E1F618DA8CEE1CDA84EF5F
:100D60001ADA87E218DAE1DA10DA8CEE14DA85EFB3
:100D700012DA80E810DAD9DA0895CF93DF93DCD95C
:100D8000DBD9DAD9D9D9D8D9D7D9FFD980E703DACD
:100D9000C9E1D1E083E390E0FE010995CDD9CCD93A
:100DA000CBD9CAD983E390E0FE010995C5D9C4D94E
:100DB000C3D982E390E0FE010995BED9BDD988E090
:100DC00090E0FE01099581E090E0FE01099586E042
:100DD00090E0FE01099588E290E0FE0109958CE023
:100DE00090E0FE010995C2EAD9E080E190E060E080
:100DF00070E0FE01099580E090E061E070E0FE01A6
:100E0000099588E090E062E070E0FE01099580E2DB
:100E100090E063E070E0FE01099580E590E064E019
:100E200070E0FE01099588E190E065E070E0FE0168
:100E300009957BDADF91CF9108950F931F93CF939C
:100E4000DF93A3D980E7A7D909E111E081E090E021
:100E5000F8010995C2EAD9E080E490E066E070E02C
:100E6000FE01099588E490E067E070E0FE010995D5
:100E7000CDEFD0E082E490E0FE01099580E590E0BE
:100E8000FE01099585E490E0FE0109958DE490E06E
:100E9000FE01099581E090E0FE01099580E290E075
:100EA000FE01099580E590E0FE01099581E490E05E
:100EB000FE01099582E090E0FE0109958FE490E043
:100EC000FE01099584E590E0FE01099586E090E039
:100ED000FE01099580EC90E0F801099587E090E02B
:100EE000FE01099583E490E0FE01099584E590E018
:100EF000FE01099581E490E0FE01099588E490E007
:100F0000FE0109958FE490E0FE01099582E490E0EE
:100F1000FE0109958BE490E0FE01099580E090E0E8
:100F2000FE01099502DADF91CF911F910F9108958B
:100F30000F931F93CF93DF9328D980E72CD909E132
:100F400011E081E090E0F801099580E490E066E02E
:100F500070E0F8D181E090E0F8010995CDEFD0E0A4
:100F600082E490E0FE01099580E590E0FE0109959C
:100F700085E490E0FE0109958DE490E0FE0109957D
:100F800081E090E0FE01099580E290E0FE01099584
:100F900080E590E0FE01099581E490E0FE0109956D
:100FA00082E090E0FE0109958FE490E0FE01099552
:100FB00084E590E0FE01099586E090E0FE01099548
:100FC00080EC90E0F801099585E090E0FE0109953C
:100FD00080E090E0FE01099583E090E0FE01099534
:100FE00082E690E0FE01099584E590E0FE01099516
:100FF00080E590E0FE01099581E490E0FE0109950D
:1010000094D9DF91CF911F910F9108950F931F9362
:10101000CF93DF93BAD880E7BED809E111E081E031
:1010200090E0F8010995C2EAD9E080E390E066E03B
:1010300070E0FE01099588E390E067E070E0FE0152
:10104000099581E090E0F8010995CDEFD0E086E0C8
:1010500090E0FE01099585E490E0FE01099580E5A8
:1010600090E0FE01099585E490E0FE01099587E096
:1010700090E0FE01099580E590E0FE01099585E488
:1010800090E0FE01099582E490E0FE01099580EC74
:1010900090E0F801099584E090E0FE01099582E472
:1010A00090E0FE01099580E090E0FE01099587E05F
:1010B00090E0FE01099581E490E0FE01099584E548
:1010C00090E0FE01099585E490E0FE01099583E03A
:1010D00090E0FE01099581E090E0FE01099525D997
:1010E000DF91CF911F910F9108950F931F93CF938D
:1010F000DF934BD880E74FD809E111E081E090E021
:10110000F801099519D888E290E066E070E01AD1FC
:10111000CDEFD0E088E490E0FE01099585E490E011
:10112000FE0109958FE490E0FE01099582E090E0D0
:10113000FE01099588E590E0FE0109958FE490E0B5
:10114000FE01099584E090E0FE01099580E090E0C1
:10115000FE0109958DE490E0FE01099581E490E09F
:10116000FE01099580EC90E0F801099586E090E099
:10117000FE01099581E490E0FE0109958DE490E07F
:10118000FE01099585E490E0FE01099588E490E070
:10119000FE01099581E490E0FE01099580E290E06E
:1011A000FE01099585E090E0FE01099580E090E060
:1011B000FE01099583E090E0FE01099582E690E04A
:1011C000FE01099584E590E0FE01099580E590E037
:1011D000FE01099581E490E0FE010995A6D8DF9112
:1011E000CF911F910F9108950F931F93CF93DF938A
:1011F000CCD780E7D0D709E111E081E090E0F80199
:1012000009959AD780E490E066E070E09BD0CDEF3E
:10121000D0E083E490E0FE01099582E090E0FE01D9
:10122000099580E590E0FE0109958FE490E0FE01CC
:10123000099583E490E0FE01099580E090E0FE01CD
:10124000099584E590E0FE01099582E690E0FE01B3
:10125000099580E290E0FE01099582E490E0FE01AC
:10126000099580E590E0FE01099585E490E0FE0196
:1012700009958DE490E0FE01099581E090E0FE0182
:10128000099580EC90E0F801099580E590E0FE0179
:10129000099581E490E0FE01099582E090E0FE016D
:1012A00009958FE490E0FE01099584E590E0FE0148
:1012B000099586E090E0FE01099580E290E0FE014C
:1012C000099585E090E0FE01099580E090E0FE013F
:1012D000099583E090E0FE01099582E690E0FE0129
:1012E000099584E590E0FE01099580E590E0FE0116
:1012F000099581E490E0FE0109958FE390E0FE01FD
:101300000995DF91CF911F910F910895DF93CF93AE
:101310000F92CDB7DEB789838981807F85603BD707
:101320008981807F816037D789818295807F8560C0
:1013300032D789818295807F81602DD70F90CF91A0
:10134000DF9108950F931F93DF93CF9300D00F92F7
:10135000CDB7DEB78A836B838B81880F880F880FA8
:10136000805C67D719828981883088F405E111E0B3
:10137000EA818981F0E0E80FF11DE00FF11F808123
:10138000C5DF89818F5F89838981883088F380E810
:1013900050D70F900F900F90CF91DF911F910F9129
:1013A0000895EF92FF920F931F93DF93CF9300D096
:1013B00000D0CDB7DEB769837A838B839C83E5D673
:1013C00080E7E9D68AEC35D769817A818B819C8167
:1013D00020E432E44FE050E008D50F2EF0EAEF2E83
:1013E000F6E8FF2EF1E00F2FF0E01F2FF02DA801FF
:1013F0009701FBD4822F805D00D769817A818B8130
:101400009C81A8019701F1D40F2EF0E1EF2EF7E2B5
:10141000FF2EF0E00F2FF0E01F2FF02DA801970115
:10142000E4D4822F805DE9D669817A818B819C81A9
:10143000A8019701DAD40F2EF8EEEF2EF3E0FF2E7D
:10144000F0E00F2FF0E01F2FF02DA8019701CDD471
:10145000822F805DD2D669817A818B819C81A8019F
:101460009701C3D40F2EF4E6EF2EF0E0FF2EF0E04C
:101470000F2FF0E01F2FF02DA8019701B6D4822F77
:10148000805DBBD669817A818B819C81A80197019F
:10149000ACD40F2EFAE0EF2EF0E0FF2EF0E00F2F8D
:1014A000F0E01F2FF02DA80197019FD4822F805DBF
:1014B000A4D669817A818B819C81A801970195D4FA
:1014C000862F805D9AD631D70F900F900F900F9096
:1014D000CF91DF911F910F91FF90EF9008958F9220
:1014E0009F92AF92BF92CF92DF92EF92FF920F93B3
:1014F0001F93DF93CF9300D000D0CDB7DEB7F89421
:1015000018BA8FEF87BB00E410E01093A40100939A
:10151000A30112D611D610D60FD633D60DD60CD6BF
:101520000BD60AD696D329DC15BA80E284BB80E6B6
:1015300087B988E886B9369A8E989698FF24689479
:10154000F3F8F8B884E28093140185E090E090937A
:10155000A4018093A3015DD718D68CEE1CD680ED34
:101560001AD6E3D612D68DEE16D67DD6D4D6DDD6D3
:10157000AFDB0ED88091D7019091D801A091D9010D
:10158000B091DA0189839A83AB83BC831093A40161
:101590000093A30181B3837F81BB8CE082BB8AE08F
:1015A00085BF80EC8BBFA99AF2BC85E085BD80E445
:1015B00089BF84E088BB789411E000E00F2EF0EC46
:1015C000FF2EF02D0F2EF4EA9F2EF02D0F2EF5E0BA
:1015D000EF2EF02D0F2EFAE0CF2EDD24F02DAA24D1
:1015E000BB246894A6F80F2EFAE08F2EF02D809180
:1015F00014018093AB0193B32091AB01812F91FD36
:10160000802F882371F02370812F213009F4802FDF
:10161000882339F0C29A8091140180688093140164
:1016200006C0C298809114018F7780931401809135
:10163000AB0190E08C7190708C30910519F18D3078
:1016400091053CF48430910559F08830910589F575
:1016500010C080319105E9F08431910551F521C028
:10166000ECDB80911401837E80931401FABEFBBEF3
:1016700020C05EDC80911401837E80931401FABE49
:10168000FBBE17C0C3DC80911401837E80931401DC
:1016900010C02BDD80911401837C80931401FBBE6C
:1016A00008C0A2DD80911401837C80931401FABEEE
:1016B000FBBE8091AB0185FF20C08091DB018823B8
:1016C000E1F48091AB0186FF0AC060919F017091A7
:1016D000A0018091A1019091A20163DE09C06091F7
:1016E000E8017091E9018091EA019091EB0159DEE6
:1016F000809114018F7D809314018091AB0190E063
:10170000837090708130910509F451C08230910549
:101710001CF4009751F0D5C08230910509F45BC0EC
:101720008330910509F0CDC086C00093DB010093A2
:10173000D501AD98D092A401C092A30129D7B0924F
:10174000A401A092A3012091D7013091D80140912A
:10175000D9015091DA0189819A81AB81BC81281B22
:10176000390B4A0B5B0B33231CF4309521953F4F0B
:101770008BE0293B380764F0E092DB018092D501D1
:101780008091AB018078826180931401AD9899C0FB
:101790008091A9018A3508F494C080911401807861
:1017A0008D6080931401C2981093D5018AC08091F6
:1017B000D50180FF03C0AD9AC19A02C0AD98C1980F
:1017C0008091A901803508F07CC08091140190922D
:1017D0001401C19876C08091A9018A3558F0809192
:1017E00014018091AB0180788D6080931401C298C0
:1017F0001093D5018091D501883069F48091AB01B7
:1018000080788261809314018091D5018F5F8093ED
:10181000D501E092DB018091D501803109F051C002
:101820008091AB0180788A66809314011093D50172
:101830000093DB0146C08091D501882311F41093F9
:10184000D501E092DB018091D5018830D0F1809103
:10185000AD019091AE01A091AF01B091B001837044
:101860009070A070B0700097A105B10531F0823082
:101870009105A105B10529F51CC08091AD0190919C
:10188000AE01A091AF01B091B00186FF07C0809179
:10189000AB01807888668093140106C08091AB010B
:1018A00080788462809314010093DB010093D5015A
:1018B00008C08091AB0180788A6680931401E09221
:1018C000DB018091AA01882309F491CE8091AA01BD
:1018D000809314010093AA018ACE1F920F920FB633
:1018E0000F9211242F938F939F93DF93CF9300D068
:1018F000CDB7DEB7F8941A82198289819A812FE0D8
:101900008F3F920758F489819A8101979A8389833E
:1019100089819A812FE08F3F9207A8F3809114016B
:1019200090E0837090700097D1F48091140186FF4D
:101930000BC0909114018091140193708078892BD1
:1019400084628093AA010AC09091140180911401CD
:1019500093708078892B88668093AA011BBE789447
:101960000F900F90CF91DF919F918F912F910F90BA
:101970000FBE0F901F9018951F920F920FB60F92E7
:1019800011242F938F939F93AF93BF93DF93CF93A4
:1019900000D0CDB7DEB7F8941A82198289819A8176
:1019A0002FE08F3F920758F489819A8101979A839B
:1019B000898389819A812FE08F3F9207A8F38091D4
:1019C00014018370833099F41092B1011092D60102
:1019D00010929F011092A0011092A1011092A201F9
:1019E00080911401807888668093AA011BC0809141
:1019F000140183708130B1F08091140190E0A0E077
:101A0000B0E08093AD019093AE01A093AF01B0938D
:101A1000B00180911401807887618093AA0181E0F0
:101A20008093D5011BBE78940F900F90CF91DF91DA
:101A3000BF91AF919F918F912F910F900FBE0F90FB
:101A40001F9018951F920F920FB60F9211248F932B
:101A50009F93AF93BF93369A8091D501882329F045
:101A60008091D5018F5F8093D501809114018823E7
:101A70000CF057C08091C8018F5F8093C80180919E
:101A8000C8018C3300F11092C801809196018F5FDC
:101A900080939601809196018C33A8F01092960164
:101AA0008091E8019091E901A091EA01B091EB01E8
:101AB0000196A11DB11D8093E8019093E901A093C7
:101AC000EA01B093EB018091B1018F5F8093B10186
:101AD0008091B1018C3300F11092B1018091D60157
:101AE0008F5F8093D6018091D6018C33A8F010923D
:101AF000D60180919F019091A001A091A101B09188
:101B0000A2010196A11DB11D80939F019093A00198
:101B1000A093A101B093A2018091140180628093EF
:101B20001401BF91AF919F918F910F900FBE0F90B5
:101B30001F9018951F920F920FB60F9211242F939A
:101B40003F934F935F936F937F938F939F93EF9305
:101B5000FF93DF93CF930F92CDB7DEB784B195B1EA
:101B60009093C6011982E9819091C6013981F0E014
:101B7000E554FF4F81E02081921708F080E0882330
:101B800019F181E03A3508F080E08823E9F080E639
:101B900090E031E070E029812F5F29832981409115
:101BA000C6016981FC01E20FF11DE55AFF4F232FA9
:101BB0005081451708F0272F222331F0232F6A3553
:101BC00008F0272F222339F78981E0E6F0E0E80FBB
:101BD000F11D80818093A9019091C7018091A90195
:101BE000981721F08091A9018093C7010F90CF91A0
:101BF000DF91FF91EF919F918F917F916F915F9115
:101C00004F913F912F910F900FBE0F901F901895FD
:101C10001F920F920FB60F9211242F933F934F9361
:101C20005F936F937F938F939F93AF93BF93EF9344
:101C3000FF93F89411BA14BA17BA18BA12BA15BAAF
:101C40000ED2FFCFE199FECF9FBB8EBBE09A8DB342
:101C5000089580E293E0F6DF90E0A0E0B0E08093AA
:101C6000E8019093E901A093EA01B093EB0181E2CE
:101C700093E0E8DF2091E8013091E9014091EA0129
:101C80005091EB01782F60E0CB01AA2797FDA0953A
:101C9000BA2F280F391F4A1F5B1F2093E80130938A
:101CA000E9014093EA015093EB0182E293E0CADF3D
:101CB0002091E8013091E9014091EA015091EB0156
:101CC000782F772760E0CB01AA2797FDA095BA2F40
:101CD000280F391F4A1F5B1F2093E8013093E90149
:101CE0004093EA015093EB0183E293E0ABDF8093F2
:101CF000960184E293E0A6DF8093C80185E293E039
:101D0000A1DF90E0A0E0B0E080939F019093A0015C
:101D1000A093A101B093A20186E293E093DF20910A
:101D20009F013091A0014091A1015091A201782F13
:101D300060E0CB01AA2797FDA095BA2F280F391F85
:101D40004A1F5B1F20939F013093A0014093A10184
:101D50005093A20187E293E075DF20919F013091BB
:101D6000A0014091A1015091A201782F772760E056
:101D7000CB01AA2797FDA095BA2F280F391F4A1F1C
:101D80005B1F20939F013093A0014093A1015093CA
:101D9000A20188E293E056DF8093D60189E293E0C6
:101DA00051DF8093B101E199FECF0895629FD00188
:101DB000739FF001829FE00DF11D649FE00DF11D06
:101DC000929FF00D839FF00D749FF00D659FF00DB5
:101DD0009927729FB00DE11DF91F639FB00DE11DA2
:101DE000F91FBD01CF0111240895A1E21A2EAA1BEB
:101DF000BB1BFD010DC0AA1FBB1FEE1FFF1FA217BB
:101E0000B307E407F50720F0A21BB30BE40BF50BB7
:101E1000661F771F881F991F1A9469F76095709540
:101E2000809590959B01AC01BD01CF01089597FB72
:101E3000092E05260ED057FD04D0D7DF0AD0001C8E
:101E400038F450954095309521953F4F4F4F5F4F57
:101E50000895F6F790958095709561957F4F8F4F17
:081E60009F4F0895F894FFCF95
:101E68001415161718191A1B1C1D1E1F20212223B2
:101E78002425262728292A2B2C2D2E2F30313233A2
:101E88003435363738393A3B3C3D3E3F4041424392
:101E98004445464748494A4B4C4D4E4F5051525382
:101EA8005455565758595A5B5C5D5E5F6061626372
:101EB8006465666768696A6B6C6D6EE4E3E2E1DF2E
:101EC800DEDDDBDAD9D7D6D4D3D1D0CECCCBC9C7D7
:101ED800C5C3C2C0BEBCBAB8B6B4B2B0AEACAAA88C
:101EE800A5A3A19F9D9B99969492908E8C8A878595
:101EF80083817F7D7B79777573716F6D6B6967659A
:101F08006362605E5C5B5957555452514F4E4C4B5F
:101F180049484645430F11110F050911001F1010BC
:101F28001E11111F001111131519111100040E159E
:101F3800150E040400030305050D0911000E110216
:101F48000402011E001F111111111111001F1010A0
:101F58001010101000111111111D151D0011111173
:101F68000F01010E00060A0A0A0A1F1100000000EC
:101F78000000000000000000000000000000000059
:101F88000000000000000000000000000000000049
:061F980000000000000043
:00000001FF
